:020000040000FA
:10000000880700200903000011030000130300000B
:100010001503000017030000190300000000000092
:100020000000000000000000000000001B030000B2
:100030001D030000000000001F0300003D2200001F
:10004000230300002503000027030000290300000C
:100050002B030000A52C00002F030000310300003B
:1000600033030000350300003703000039030000AC
:100070003B0300003D0300003F030000410300007C
:10008000430300004503000047030000490300004C
:100090004B0300004D0300004F030000510300001C
:1000A00053030000550300005703000059030000EC
:1000B0005B0300005D0300005F03000061030000BC
:1000C000630300006503000067030000690300008C
:1000D0006B0300006D0300006F030000710300005C
:1000E000730300007503000077030000790300002C
:1000F0007B0300007D0300007F03000081030000FC
:1001000083030000850300008703000089030000CB
:100110008B0300008D0300008F030000910300009B
:10012000930300009503000097030000990300006B
:100130009B0300009D0300009F030000A10300003B
:10014000A3030000A5030000A7030000C1030000F3
:100150000000000000000000C3030000C503000011
:10016000C7030000C903000000000000CB0300002B
:10017000CD030000CF030000D1030000D303000033
:10018000D5030000D7030000D9030000DB03000003
:10019000DD030000DF030000E1030000E3030000D3
:1001A000E5030000E7030000E9030000EB030000A3
:1001B000ED030000EF030000F1030000F303000073
:1001C000F5030000F7030000F9030000FB03000043
:1001D000FD030000FF030000010400000304000011
:1001E0000504000007040000090400000B040000DF
:1001F0000D0400000F0400001104000013040000AF
:1002000000F002F800F05CF80AA090E8000C8244CC
:100210008344AAF10107DA4501D100F051F8AFF2A9
:10022000090EBAE80F0013F0010F18BFFB1A43F0D4
:100230000103184750390000703900000A444FF09C
:10024000000C10F8013B13F0070408BF10F8014B35
:100250001D1108BF10F8015B641E05D010F8016B7A
:10026000641E01F8016BF9D113F0080F1EBF10F8DE
:10027000014BAD1C0C1B09D16D1E58BF01F801CB01
:10028000FAD505E014F8016B01F8016B6D1EF9D584
:100290009142D6D370470000002300240025002699
:1002A000103A28BF78C1FBD8520728BF30C148BFD9
:1002B0000B6070471FB503F09BF91FBD10B510BD53
:1002C00000F0BBF81146FFF7F5FF02F093FD00F0D8
:1002D000D9F803B4FFF7F2FF03BC00F0E1F8000027
:1002E000EFF3108072B67047EFF310807047EFF3B2
:1002F000108062B6704730BF704780F31188704736
:10030000EFF311807047000045488047454800479B
:10031000FEE7FEE7FEE7FEE7FEE7FEE7FEE7FEE7B5
:10032000FEE7FEE7FEE7FEE7FEE7FEE7FEE7FEE7A5
:10033000FEE7FEE7FEE7FEE7FEE7FEE7FEE7FEE795
:10034000FEE7FEE7FEE7FEE7FEE7FEE7FEE7FEE785
:10035000FEE7FEE7FEE7FEE7FEE7FEE7FEE7FEE775
:10036000FEE7FEE7FEE7FEE7FEE7FEE7FEE7FEE765
:10037000FEE7FEE7FEE7FEE7FEE7FEE7FEE7FEE755
:10038000FEE7FEE7FEE7FEE7FEE7FEE7FEE7FEE745
:10039000FEE7FEE7FEE7FEE7FEE7FEE7FEE7FEE735
:1003A000FEE7FEE7FEE7FEE7FEE7FEE7FEE7FEE725
:1003B000FEE7FEE7FEE7FEE7FEE7FEE7FEE7FEE715
:1003C000FEE7FEE7FEE7FEE7FEE7FEE7FEE7FEE705
:1003D000FEE7FEE7FEE7FEE7FEE7FEE7FEE7FEE7F5
:1003E000FEE7FEE7FEE7FEE7FEE7FEE7FEE7FEE7E5
:1003F000FEE7FEE7FEE7FEE7FEE7FEE7FEE7FEE7D5
:10040000FEE7FEE7FEE7FEE7FEE7FEE7FEE7FEE7C4
:10041000FEE7FEE704480549034A054B7047000024
:100420007D230000010200008805002088070020CD
:1004300088050020704770477047754600F02CF81B
:10044000AE4605006946534620F00700854618B0C1
:1004500020B5FFF7DFFFBDE820404FF000064FF06A
:1004600000074FF000084FF0000B21F00701AC46E9
:10047000ACE8C009ACE8C009ACE8C009ACE8C00908
:100480008D46704710B50446AFF300802046BDE8A6
:100490001040FFF71EBF00000048704724050020F1
:1004A00001491820ABBEFEE726000200704700009D
:1004B00010B553480078FF2849D152480068524986
:1004C000096888420ED1514800685149096888423C
:1004D00008D15048006850490968884202D101207B
:1004E0004E4908704948006849490968401A454919
:1004F0000968454A1268891AC1EB011100EB8100B5
:10050000012802D900204549087044480078012894
:1005100017D143480078C043414908700846007825
:1005200028B9642220213F4800F00DFC66E03E48D7
:100530000078002862D1002220213A4800F003FC14
:100540005CE000222021374800F0FDFB56E03748F0
:100550000078FF2848D12B4800683549096888424F
:100560000ED12A48006833490968884208D12948D1
:10057000006831490968884202D101202A4908707F
:10058000224800682B490968401A1E490968284A10
:100590001268891AC1EB011100EB8100012802D910
:1005A00000202149087020480078012816D11C48F5
:1005B0000078C0431A4908700846007828B96422B8
:1005C0002021184800F0BFFB18E014480078A8B9B3
:1005D00000222021134800F0B6FB0FE0002220216A
:1005E000104800F0B0FB09E000200F4908700B49EB
:1005F0000870002220210B4800F0A5FB10BD000070
:10060000640000203C000020480000204000002042
:100610004C00002044000020500000206600002014
:10062000FC0000200010064067000020650000204C
:1006300054000020580000205C0000201FB5AAE1F3
:1006400001F0ACFED44802F07FFBF0B1D24802F0DA
:1006500067FBD249087008460178CF4802F06CFB6E
:10066000CE480078CE49CF4A12788854CD480078D9
:10067000401CCC490870CA4802F0C6F9C748007847
:10068000522802D10020C74908700021222000F022
:100690005DFBFD2802D10120C3490880C3480078D2
:1006A00001287DD1C0480088002879D00020BF49AA
:1006B0000870BF48006828B1BD480068401EBC49AA
:1006C000086002E00920BA490860B94800680928B2
:1006D0000BD1B848006828B1B6480068401EB5493B
:1006E000086002E00520B3490860B14800680928A5
:1006F0000FD1B048006805280BD1AF48006828B179
:10070000AD480068401EAC49086002E00920AA49D3
:100710000860A9480068092813D1A548006809287D
:100720000FD1A448006805280BD1A448006828B15F
:10073000A2480068401EA149086002E009209F49C4
:1007400008609E480068092817D19B48006809285E
:1007500013D19748006809280FD1964800680528EA
:100760000BD19748006828B195480068401E94490D
:10077000086002E009209249086091480068092851
:100780001DD18E480068092819D18B4800680928B6
:1007900015D187480068092811D18648006800E013
:1007A0002DE005280BD18748006828B185480068EE
:1007B000401E8449086002E009208249086081489F
:1007C000006809281FD17E48006809281BD17B4892
:1007D0000068092817D178480068092813D174489F
:1007E000006809280FD17348006805280BD17648A6
:1007F000006828B16F480068401E7349086002E035
:1008000009207149086070480068A0B96D48006807
:1008100088B96B48006870B96848006858B966487C
:10082000006840B96348006828B96148006810B999
:1008300000205D4908800021222000F087FA6349EA
:10084000087008460078FE2867D161485849096851
:10085000405C5F49574A1268895C80235C4A564C69
:100860002468125D5A4C554DCDE90023CDE90210A4
:100870002D68635D524D2D68625D524D2D68615D3E
:10088000514D2D68605D00F04BFD642000F02CF9A7
:100890002DE001204F49088001F080FD00204D49E6
:1008A00008804D48007810B300204B490870484834
:1008B0003F490968405C46493E4A1268895C80238A
:1008C000434A3D4C2468125D414C3C4DCDE9002328
:1008D000CDE902102D68635D394D2D68625D394D9B
:1008E0002D68615D384D2D68605D00F019FD0021B7
:1008F000222000F02BFAFE2801D1012000E0002088
:10090000324908700028C4D12B480068092805D056
:1009100029480068401C2849086017E026480068FC
:10092000092813D1002024490860244800680528BC
:1009300005D022480068401C2049086006E01F4896
:100940000068052802D100201C4908602248007870
:1009500008B30020204908701D4815490968415C0A
:10096000144A1268805C8023194A134C2468125D73
:10097000174C124DCDE90023CDE902012D68635DCE
:100980000F4D2D68625D0F4D2D68615D0E4D2D6818
:10099000605D00F0C5FC53E600C00040F50000209B
:1009A0003C010020F6000020D60000200E000020B0
:1009B000C4000020C0000020B8000020B4000020C7
:1009C000B0000020AC000020A8000020F7000020AC
:1009D000E400002006010020110000207FB5364809
:1009E00000684FF47A71B0FBF1F034490860324886
:1009F00000684FF47A71B0FBF1F201FB1200642140
:100A0000B0FBF1F02E4908602B4800680A21B0FBCA
:100A1000F1F0B0FBF1F201FB12002A490860264810
:100A200000680A21B0FBF1F201FB120026490860C0
:100A3000264800680A21B0FBF1F0254908602348E8
:100A400000680A21B0FBF1F201FB120021490860A5
:100A5000214800680A21B0FBF1F0204908601E48D7
:100A600000680A21B0FBF1F201FB12001C4908608A
:100A70001C480968405C1B49184A1268895C194A7D
:100A8000144B1B68D25C174B114C24681B5D154C32
:100A90000D4DCDE90032CDE902102D68635D094DA1
:100AA0002D68625D064D2D68615D044D2D68605DA9
:100AB00000F036FC7FBD0000300000206800002000
:100AC0006C00002070000020740000203400002022
:100AD000780000207C0000203800002080000020EA
:100AE00084000020E4000020002100E0491C814235
:100AF000FCD37047D0F8003412F0010F14BF0B4341
:100B00008B43C0F8003412F0020FD0F8202414BF39
:100B1000114322EA0101C0F8201470472DE9F003C7
:100B200001264FF0000C0325C2F3411706FA0CF41E
:100B30000C4211D0D0F8C48F4FEA4C0405FA04F9E6
:100B400028EA0908C0F8C48FD0F8C48F07FA04F463
:100B500048EA0404C0F8C44F0CF1010C0CF0FF0C7F
:100B6000BCF1080FE2D3D0F800C512F0010F14BF9A
:100B70004CEA010C2CEA010CC0F800C5D0F804C501
:100B800012F0020F14BF4CEA010C2CEA010CC0F861
:100B900004C5D0F808C512F0040F14BF4CEA010CCC
:100BA0002CEA010CC0F808C5D0F818C512F0080FDF
:100BB00014BF4CEA010C2CEA010CC0F818C512F065
:100BC000100FD0F83C2514BF0A438A43C0F83C25D7
:100BD000D0F80C2513F0010F14BF0A438A43C0F864
:100BE0000C25D0F8102513F0020F14BF0A438A43D6
:100BF000C0F81025D0F8142513F0040F14BF0A43D1
:100C00008A43C0F81425D0F81C2513F0080F14BF30
:100C10000A438A43C0F81C25D0F8442513F4007F0A
:100C200014BF0A438A43C0F84425D0F8402513F482
:100C3000407F14BF0A438A43C0F84025D0F82825D6
:100C4000002B0CBF114322EA0101C0F82815BDE8B2
:100C5000F00370470E4AC0F30741D26E01238B4068
:100C60001A420C4A1ABF02EBC101496852F831100E
:100C7000020AD1F82C354FF00F0C0CFA02FC00F0F0
:100C80000F0023EA0C0390401843C1F82C0570476D
:100C900000E00F409437000050F82100704730B555
:100CA0000C4605460022FFF725FF21462846BDE8F1
:100CB000304008230122FFF731BF30B50C4605460E
:100CC00008230122FFF72AFF21462846BDE83040CD
:100CD0000122FFF70FBF30B50C4605460222FFF791
:100CE00009FF21462846BDE8304009230122FFF7CD
:100CF00015BF30B50C4605460222FFF7FBFE214624
:100D00002846BDE8304008230122FFF707BF30B571
:100D10000C4605460222FFF7EDFE21462846BDE8B7
:100D200030400A230122FFF7F9BE30B50C460546D4
:100D30000222FFF7DFFE21462846BDE830400823A7
:100D40000122FFF7EBBE40F82120704770B5044642
:100D50000E4600BF1F4800F07FF80028FAD100229D
:100D600021461C4800F0C0F831461A4800F07EF8D1
:100D70000721184800F076F800BF164800F066F822
:100D80000028FAD1134800F078F808B1002070BDAF
:100D90006420FFF7A9FE012221460E4800F0A4F8C6
:100DA00007210C4800F05EF800BF0A4800F04EF83A
:100DB0000028FAD1074800F057F8C5B2054800F0FE
:100DC0005CF808B10020E2E76420FFF78DFE2846BA
:100DD000DDE70000000002402DE9F04104460F4627
:100DE000154600BF184800F037F80028FAD1002255
:100DF0002146154800F078F83946134800F036F8D7
:100E00000321114800F02EF800BF0F4800F024F82D
:100E10000028FAD10C4800F030F8C6B229460A483A
:100E200000F024F80521084800F01CF800BF06482F
:100E300000F012F80028FAD1034800F01EF8C6B2FC
:100E40003046BDE8F081000000000240406810F02C
:100E5000400018BF01207047406810F0010018BF23
:100E6000012070474160704780687047816070471B
:100E7000016A41F0100101627047406810F0010FF3
:100E800005D110F0120F1CBF00F01C0070470020AD
:100E900070470000036A43F010030362002A14BF86
:100EA0000E4A0F4A02EB820301EB830302EB82023C
:100EB00092005B1EB3FBF2F2521EC260D0F8C02F4C
:100EC00012F0010F08BF7047064A1144521CB1FBD3
:100ED000F2F1491E41F08001C1607047801A06009E
:100EE000A08601007F47370142EA41010160704757
:100EF0001649042804BF086840F4803018D005283B
:100F000004BF086840F4003012D0062812D00F2821
:100F100015D0102838BF7047103800F01F0101228B
:100F200002FA01F142090A4850F8220001607047B4
:100F300008607047086840F48020086070474FF0F0
:100F4000E020016941F002010161704724ED00E0F9
:100F5000E038000010B5FFF7CAF9002818BF0120DB
:100F600010BD0000044951F82000044940F0FD7014
:100F700040F0806008607047243800000CED00E00D
:100F8000084A20F00303D25813688007C00E4FF0C0
:100F9000FF0C0CFA00FC23EA0C0301FA00F01843E2
:100FA0001060704744380000036823F01E031943A3
:100FB0000160C2607047016841F001010160704743
:100FC0008068704710B52D480078F32854D100226E
:100FD00006212220FFF700FF294908702948FFF762
:100FE00083FD00212220FFF7B1FE24490870F32879
:100FF00042D100F075FD00202349086023490860B4
:101000002349086023490860234908602349086090
:1010100023490870012023490870002022490860F4
:101020002249086022490880224908802249088014
:1010300022490870FF2011490870002020490880CB
:10104000204908702049087020490880FF20204965
:10105000087000201F4908701F4908601F49086078
:101060001F4908601F4908601F4908601F49086040
:101070001F4908601F49086010BD0000F7000020EC
:101080002C000020400D0300480000204C000020F0
:101090005000002054000020580000205C00002078
:1010A000C8000020C9000020CC000020D000002093
:1010B000D4000020D6000020D8000020DA00002054
:1010C000FA000020FD000020FE00002004010020A6
:1010D000DB000020DC000020A8000020AC00002085
:1010E000B0000020B4000020B8000020BC000020A8
:1010F000C0000020C400002010B5234801F060F8B3
:1011000000BF214801F070F80028FAD00F201F49D5
:1011100008601F4908601C48C01C01F051F800BF5E
:101120001948C01C01F060F80028F9D01648C01D0D
:1011300001F046F800BF1448C01D01F055F8002822
:10114000F9D01148001D01F03BF800BF0E48001D0A
:1011500001F04AF80028F9D001210E48FFF7ADFD53
:1011600001210D48FFF7A9FD20210C48FFF7A5FD3F
:1011700003210B48FFF793FD0A23012203210848AE
:10118000FFF7CCFC10BD0000050800F000D40540BE
:101190001CD50540005002400040064000100640AB
:1011A00000D0034010B51E4801F00AF81D4801F0B8
:1011B00007F81D48FFF74EFD1C48FFF74BFD0421C3
:1011C0001B48FFF796FD08211948FFF784FD01220F
:1011D000184801681848FFF75DFE1748FFF748FEFA
:1011E000FF220C212220FFF7F7FD044600220D21EB
:1011F0002220FFF7F1FD044600220E212220FFF7F6
:10120000EBFD0446002203211820FFF7E5FD04460C
:10121000FF2201211820FFF7DFFD044610BD00006A
:10122000002000F0010800F002080100020C01009B
:1012300000500040180000200000024010B5164881
:1012400000F0BEFF154800F0BBFF00BF134800F0E0
:10125000CBFF0028FAD01248FFF7FCFC1148FFF73B
:10126000F9FC08211048FFF728FD002208210E484C
:10127000FFF769FD02210C48FFF749FD04210A48E8
:10128000FFF745FD642208210848FFF78DFE074857
:10129000FFF791FE10BD00000A0800F0004400F0C6
:1012A00006040A0006080A000020064000C00240AA
:1012B00010B5124800F084FF114800F081FF00BF14
:1012C0000F4800F091FF0028FAD00120FFF7C2FC80
:1012D00040F20140FFF7BEFC03214FF04020FFF732
:1012E00024FD60234FF4E13206480168064801F00E
:1012F00030FD06A001F070FD10BD0000001800F0E8
:10130000000800F01800002000C000400D0A4865E9
:101310006C6C6F2C20776F726C64210D0A000000DA
:101320002DE9F05F04460D4616461F46DDE90CAB7D
:10133000DDE90A89D2480078FF287DD1E2B2052193
:101340002220FFF749FDCF49087001220621222003
:10135000FFF742FDCB49087042F21070FFF7C4FB63
:10136000EAB205212220FFF737FDC64908700222A4
:1013700006212220FFF730FDC249087042F21070AA
:10138000FFF7B2FBF2B205212220FFF725FDBD4990
:101390000870042206212220FFF71EFDB9490870BB
:1013A00042F21070FFF7A0FBFAB205212220FFF7EE
:1013B00013FDB4490870082206212220FFF70CFD16
:1013C000B049087042F21070FFF78EFB08F0FF0280
:1013D00005212220FFF700FDAA49087010220621EE
:1013E0002220FFF7F9FCA749087042F21070FFF7BE
:1013F0007BFB09F0FF0205212220FFF7EDFCA1494C
:101400000870202206212220FFF7E6FC9D49087083
:1014100042F21070FFF768FB0AF0FF02052122205C
:10142000FFF7DAFC97490870402206212220FFF7D7
:10143000D3FC9449087000E01EE042F21070FFF700
:1014400053FB0BF0FF0205212220FFF7C5FC8D495D
:101450000870802206212220FFF7BEFC894908700F
:1014600042F21070FFF740FB002206212220FFF716
:10147000B3FC8449087000E1814800780028FAD163
:1014800081480078401C032190FBF1F201FB12001F
:101490007D49087008460078012803DC084600787A
:1014A000002801DA012000E0002002460621222067
:1014B000FFF792FC73490870E2B205212220FFF782
:1014C0008BFC7049087040F6AC50FFF70DFB6E487E
:1014D0000078012805DC6C480078002801DB00203A
:1014E00000E00220024606212220FFF775FC654934
:1014F0000870EAB205212220FFF76EFC61490870EE
:1015000040F6AC50FFF7F0FA5F480078012805DCA0
:101510005D480078002801DB002000E0042002463E
:1015200006212220FFF758FC56490870F2B2052127
:101530002220FFF751FC5349087040F6AC50FFF7EA
:10154000D3FA51480078012805DC4F48007800287C
:1015500001DB002000E00820024606212220FFF7E0
:101560003BFC48490870FAB205212220FFF734FC01
:101570004449087040F6AC50FFF7B6FA424800788C
:10158000012805DC40480078002801DB002000E04D
:101590001020024606212220FFF71EFC3949087060
:1015A00008F0FF0205212220FFF716FC35490870DC
:1015B00040F6AC50FFF798FA33480078012805DC74
:1015C00031480078002801DB002000E0202002469E
:1015D00006212220FFF700FC2A49087009F0FF02CB
:1015E00005212220FFF7F8FB2649087040F6AC5091
:1015F000FFF77AFA24480078012805DC22480078B1
:10160000002801DB002000E04020024606212220C5
:10161000FFF7E2FB1B4908700AF0FF0205212220B8
:10162000FFF7DAFB1749087040F6AC50FFF75CFA99
:1016300015480078012805DC13480078002801DBF4
:10164000002000E08020024606212220FFF7C4FB94
:101650000C4908700BF0FF0205212220FFF7BCFBAC
:101660000849087040F6AC50FFF73EFA0022062108
:101670002220FFF7B1FB03490870BDE8F09F00008E
:10168000DB0000202C000020DC0000201FB5F84803
:10169000006802280BD1F7480068032807D3F548F3
:1016A0000068122803D20120F34908709EE1F04837
:1016B0000068022803D1EF480068122807D2EC48DE
:1016C0000068032807D1EB480068052803D20220F0
:1016D000E94908708AE1E648006803280BD1E5482B
:1016E0000068142807D2E3480068052803D30320C4
:1016F000E14908707AE1DE480068032803D1DD483B
:101700000068142807D2DA480068042807D1D948AD
:101710000068042803D20420D749087066E1D44841
:10172000006804280BD1D3480068142807D2D14898
:101730000068042803D30520CF49087056E1CC483F
:101740000068042803D1CB480068142807D2C84891
:101750000068052807D1C7480068052803D206207D
:10176000C549087042E1C248006805280BD1C1484C
:101770000068052807D3BF480068152803D20B204E
:10178000BD49087032E1BA480068052803D1B9485C
:101790000068152807D2B6480068062807D1B54862
:1017A0000068052803D20C20B34908701EE1B04838
:1017B000006806280BD1AF480068152807D2AD484D
:1017C0000068052803D30D20AB4908700EE1A84836
:1017D0000068062803D1A7480068152807D2A44846
:1017E0000068072807D1A3480068072803D20E2005
:1017F000A1490870FAE09E48006807280BD19D486F
:101800000068162807D29B480068072803D30F20DA
:1018100099490870EAE096480068072803D195487E
:101820000068162807D292480068082807D1914816
:101830000068072803D210208F490870D6E08C4832
:10184000006808280BD18B480068072807D389480F
:101850000068172803D2152087490870C6E084481D
:101860000068082803D183480068172807D28048F9
:101870000068092807D17F480068072803D216208E
:101880007D490870B2E07A48006809280BD1794890
:101890000068172807D277480068072803D3172065
:1018A00075490870A2E072480068092803D17148A0
:1018B0000068172807D26E4800680A2807D16D48CB
:1018C0000068082803D218206B4908708EE0684829
:1018D00000680A280BD167480068172807D26548B6
:1018E0000068082803D31920634908707EE0604827
:1018F00000680A2803D15F480068172807D25C48AF
:1019000000680B2807D15B480068072803D21A201B
:10191000594908706AE0564800680B280BD15548B1
:101920000068072807D353480068162803D21F20F1
:10193000514908705AE04E4800680B2803D14D48C1
:101940000068162807D24A4800680C2807D1494881
:101950000068072803D220204749087046E0444821
:1019600000680C280BD143480068152807D241486D
:101970000068072803D321203F49087036E03C481F
:1019800000680C2803D13B480068152807D2384866
:101990000068012807D137480068052803D22220B3
:1019A0003549087022E03248006801280BD13148DF
:1019B0000068142807D22F480068052803D3232085
:1019C0002D49087012E02A480068012803D12948EF
:1019D0000068142807D226480068022806D1254846
:1019E0000068032802D22420234908702248007886
:1019F00025286FD2DFE800F06E1314151617186E45
:101A00006E6E6E2728292A2B2C6E6E6E6E4445460C
:101A10004748496E6E6E6E595A5B5C5D5E0000BF52
:101A200000BF00BF00BF00BF802000900190029067
:101A30000390124810490978425C802373216D207D
:101A4000FFF76EFC46E000BF00BF00BF00BF00BF55
:101A500080200090019002900390074800780A3897
:101A600006490A5C80233E216D20FFF759FC31E0D6
:101A70003400002038000020DA000020E4000020BC
:101A800000BF00BF00BF00BF00BF802000900190DA
:101A90000290039010480078143810490A5C8023A3
:101AA0003E217720FFF73CFC14E000BF00BF00BFE1
:101AB00000BF00BF80200090019002900390064874
:101AC00000781E3805490A5C802354216A20FFF7FC
:101AD00027FC00BF00BF1FBDDA000020E40000208B
:101AE0001FB5D8E1EF48006802287DD2E6E0EE4855
:101AF000007800287AD00020EB490870EB48006895
:101B0000401CEA4908600A2870D300200860E848B1
:101B10000078C043E6490870E2480068401CE1498B
:101B20000860E4480068401C3C21B0FBF1F201FB76
:101B30001200E04908600846006848B9DE480068BD
:101B4000401C3C21B0FBF1F201FB1200DA490860B5
:101B5000D948006860B9D748006848B9D7480068D4
:101B6000401C1821B0FBF1F201FB1200D3490860C0
:101B7000D2480068C8BBCF480068B0BBCE480068F8
:101B800098BBCF48006802280AD1CE4800681C21C3
:101B9000B0FBF1F201FB1200401CCA49086034E0BE
:101BA000C7480068012817D0C5480068032813D02B
:101BB000C348006805280FD0C148006807280BD02B
:101BC000BF480068082807D0BD4800680A2803D02D
:101BD000BB4800680C280ED1BA4800681F21B0FB32
:101BE000F1F201FB120002E072E00EE03FE0401C67
:101BF000B449086009E0B34800681E21B0FBF1F267
:101C000001FB1200401CAF490860AE480068012883
:101C100012D1AA48006878B9A648006860B9A648F9
:101C2000006848B9A64800680C21B0FBF1F201FB3E
:101C30001200401CA2490860A1480068012811D187
:101C4000A048006801280DD19C48006850B9994807
:101C5000006838B99848006820B99B480068401C63
:101C6000994908608F480068022800D127E0904811
:101C7000007878B9FF2205212220FFF7ADF89349BB
:101C800008708B48027806212220FFF7A5F88F49BB
:101C9000087009E0FF200090019002900346024680
:101CA00001460390FFF73CFB81480078C043C2B275
:101CB00001211820FFF790F88449087017E700BF4A
:101CC000FF2201211820FFF787F880490870E2E021
:101CD000744800680428FAD2724800680228F6D3D3
:101CE000D0E071480078002871D000206E4908705B
:101CF0006E480068401C6D4908600A2867D30020C0
:101D000008606B480078C0436949087065480068FE
:101D1000401C644908606748006848B96648006824
:101D2000401C3C21B0FBF1F201FB1200624908604B
:101D30006148006860B95F48006848B95F4800685A
:101D4000401C1821B0FBF1F201FB12005B49086056
:101D50005A480068D0BB57480068B8BB564800686E
:101D6000A0BB5748006802280AD1564800681C21C9
:101D7000B0FBF1F201FB1200401C5249086031E057
:101D80004F480068012817D04D480068032813D039
:101D90004B48006805280FD04948006807280BD039
:101DA00047480068082807D0454800680A2803D03B
:101DB000434800680C280BD1424800681F21B0FB43
:101DC000F1F201FB1200401C3E4908600AE03BE0D2
:101DD0003C4800681E21B0FBF1F201FB1200401CE0
:101DE0003849086037480068012812D13348006834
:101DF00078B93048006860B92F48006848B9304861
:101E000000680C21B0FBF1F201FB1200401C2C49D0
:101E100008602B480068012811D12A480068012871
:101E20000DD12648006850B92248006838B92248C8
:101E3000006820B924480068401C234908601948FC
:101E40000068042800D11EE01948007838B9002243
:101E500006212220FEF7C0FF1C49087012E01C4832
:101E6000007A1B4909791A4A9278194B5B78184C09
:101E7000CDE90032CDE902106378627A6178A0780A
:101E8000FFF74EFA2DE700BF002206212220FEF7C1
:101E9000A3FF0E490870034800680428FFF422AE2F
:101EA0001FBD0000CC0000200F000020D00000204B
:101EB000C800002044000020400000203C0000201A
:101EC0003400002038000020300000202C000020CA
:101ED000E40000202DE9F003AF4D02462868AF4B27
:101EE0001840A0F18053B3F5A02359D002F038096F
:101EF000DFF8AC82C2F38414B9F1100F25D0B9F128
:101F0000300F04BF47F230504FF400130DD04FF0A4
:101F10003800904304BF4FF40040C30105D012F0D5
:101F2000380F1CBF0020034613D09E4F12F4605F91
:101F30004FF0000618BF00222CD057F8324044451D
:101F40007DD307EBC2025268E1E00023404615242E
:101F5000EBE7A4F10900122822D29348D5F87CC0FF
:101F60004FF04C7350F824002CF01C0C072CA8BF29
:101F70004CF0100CC5F87CC02E6D4FF4002C16F4FC
:101F8000807FD2D1BCF1010C0AD02E6D16F4807F77
:101F9000F8D0CAE712F0380F18BFB9F1100F04D00B
:101FA000BDE8F0034FF000007047C2F30268DFF8AD
:101FB000FCC14FF0000257F83290E14503D307EB24
:101FC000C202526803E0521C062AF4D33246C5F816
:101FD000C020D5F8B020DFF8D8C102EA0C0242F0E8
:101FE0000042C5F8B020DFF8CCC1A4F109024C1EB4
:101FF0005CF828C0A444BCFBF1FCD5F8B010194330
:10200000C5F8B01008EBC80101EB41046A4902EBC6
:10201000420201EBC40101EB82046468C5F864412B
:10202000D5F864416FF0FF0808EB0C2C44EA0C0C67
:10203000C5F864C151F82210D5F8602100E061E0D4
:1020400002F400021143C5F86011D5F86011D5F80B
:102050006021C1F38921C2F30904D5F86421C2F3D8
:10206000042202F1010CD5F8642102F01F02521C77
:10207000B0FBF2F04A09C2F100084443424301EBCD
:10208000481104EB5212484302EB9020B0FBFCF0E5
:1020900041080846002257F832C0844503D307EBB5
:1020A000C200466802E0521C062AF4D3C5F8C0609C
:1020B000D5F8600110F4000F1DBFD5F8B00040F056
:1020C0008040C5F8B000D5F8600104BF40F40000BE
:1020D000C5F860014FF40040D5F8682112F0010FF7
:1020E00002D1401E0028F7DC002808BF002148D09C
:1020F000D5F8B000184340F0010040F01040C5F89A
:10210000B0003EE0521C062AFFF417AF3246C5F875
:10211000C020D5F8602122F40002C5F86021D5F86E
:10212000B020DFF898C002EA0C0242F00042C5F885
:10213000B020002908BF4FF0000C0AD0B0FBF1FC22
:10214000BCF1000F18BFACF1010C0CF10101B0FBA8
:10215000F1F10846002257F83240844203D307EBDE
:10216000C200466802E0521C062AF4D3C5F8C060DB
:10217000D5F8B00043EA8C22104340F00040C5F887
:10218000B000D5F8B00020F47000C5F8B000BDE88C
:10219000F00308467047000000E00F400000FF70A9
:1021A0000024F400543B00003839000040787D01E1
:1021B00000FC0FE030390000A4390000FF0300EFFD
:1021C000C0F307230749C0B2194401F07043C1F3BB
:1021D000130143EA411141EA800040F000700122FE
:1021E0000260704700E60F40C0F307220849C0B202
:1021F000114401F07042C1F3130142EA411141EA76
:10220000800040F000700068002818BF012070476F
:1022100000EA0F404FF0E020016941F00501016143
:1022200070474FF0E020016941F002010161704701
:102230004FF0E021401E48617047000010B53F4854
:10224000008828B13D480088401E3C49088005E0D0
:1022500064203A49088001203949087039480088CB
:1022600028B138480088401E3649088006E04FF4FF
:102270007A70344908800120334908703348008857
:1022800028B132480088401E3049088005E00A2005
:102290002E49088001202E4908702E48008828B158
:1022A0002C480088401E2B49088005E00020294961
:1022B00008800120284908702848008828B127484C
:1022C0000088401E2549088005E000202349088039
:1022D0000120234908702348008828B1214800883C
:1022E000401E2049088005E002201E490880012088
:1022F0001D4908701D48008828B11C480088401EF0
:102300001A49088004E0012018490880184908701B
:1023100001211848FEF7C0FC50B900200C49087094
:1023200007490870012211461348FEF70CFD04E02E
:10233000002201211048FEF706FD10BD020000201A
:102340000F0000200A0000201300002000000020E1
:102350000E00002004000020100000200C000020CF
:1023600014000020060000201100002008000020BA
:102370001200002000D003400040064004480068DE
:1023800040F4700002490860024803490860704741
:1023900088ED00E00024F4003801002000B5F34887
:1023A000007800287ED00020F0490870F0480068CE
:1023B000401C3C21B0FBF1F201FB1200EC4908602B
:1023C0000846006848B9EB480068401C3C21B0FB57
:1023D000F1F201FB1200E7490860E648006860B9C5
:1023E000E348006848B9E4480068401C1821B0FB85
:1023F000F1F201FB1200E0490860DF4800680028A4
:1024000045D1DB480068B8BBDA480068A0BBDB48B0
:10241000006802280AD1DA4800681C21B0FBF1F2FA
:1024200001FB1200401CD649086030E0D348006828
:10243000012817D0D1480068032813D0CF4800687E
:1024400005280FD0CD48006807280BD0CB4800687E
:10245000082807D0C94800680A2803D0C748006880
:102460000C280AD1C64800681F21B0FBF1F201FB1D
:102470001200401CC249086009E0C14800681E21E2
:10248000B0FBF1F201FB1200401CBD490860BC48E2
:102490000068012814D1B848006888B9B4480068B9
:1024A00070B900E022E0B348006848B9B34800685A
:1024B0000C21B0FBF1F201FB1200401CAF49086097
:1024C000AE480068012811D1AD48006801280DD13F
:1024D000A948006850B9A648006838B9A5480068FE
:1024E00020B9A8480068401CA649086000BFA5485C
:1024F000006840F2D2414843A04909680A2202FB21
:1025000001009F490968022202FB01039E480078EE
:1025100000287BD09D480078FF2877D19C48008810
:10252000002873D1984908709A480088401C99493E
:10253000088008460088012815DB9748008890B974
:102540000020088009209549086041F28830FEF794
:10255000CBFA08209249C1F8FC038F480088401C40
:102560008D49088000E18B480088012817DB8A48E4
:102570000088012813D10020864908800C20874953
:10258000086041F28830FEF7AFFA04208449C1F8B0
:10259000FC0381480088401C7F490880E4E07D48B6
:1025A0000088022817DB7C480088022813D100200D
:1025B0007849088006207949086041F28830FEF7A2
:1025C00093FA02207649C1F8FC0373480088401C46
:1025D00071490880C8E06F4800880128C2DB6E4856
:1025E00000880328BED100206A49088003206B4977
:1025F000086041F28830FEF777FA01206849C1F897
:10260000FC03002064490880AEE0FFE75E480078E4
:102610000028A7D05D4800780028A3D15C48008836
:1026200000289FD1584908705A480088401C5949D1
:1026300008800846008804280DDB5748008850B9F8
:102640000020088009205549086053480088401C34
:102650005149088088E04F48008804280FDB4E4825
:10266000008801280BD100204A49088008204B49E6
:10267000086049480088401C4749088074E0454884
:10268000008804280FDB4448008802280BD1002072
:10269000404908800C20414908603F480088401CA0
:1026A0003D49088060E03B48008804280FDB3A4839
:1026B000008803280BD100203649088004203749C0
:1026C000086035480088401C334908804CE0314898
:1026D000008804280FDB3048008804280BD1002034
:1026E0002C49088006202D4908602B480088401C92
:1026F0002949088038E02748008804280FDB26484D
:10270000008805280BD10020224908800220234997
:10271000086021480088401C1F49088024E01D48AB
:10272000008804280FDB1C48008806280BD10020F5
:102730001849088003201949086017480088401C80
:102740001549088010E01348008803280CDB124864
:102750000088072808D100200E49088001200F4971
:10276000086000200C49088000BD00001300002014
:1027700044000020400000203C00002034000020E5
:10278000380000203000002012000020DB00002074
:1027900006010020FA00002004010020FCD30540BF
:1027A00000D0054030B52DED048B85B05248FEF7C2
:1027B00007FC5249086052480078002833D00020B6
:1027C0004F4908704F48007801282DD14B480068C8
:1027D00000F0FDFD41EC190B9FED4B0B53EC102B62
:1027E00000F008FE41EC180B00F0C4FD48490860F9
:1027F000084600680A21B0FBF1F201FB12004549CE
:102800000C5C434800680A21B0FBF1F041490D5CC3
:1028100080200090019002900346024621460390DA
:102820002846FEF77DFD62E03648007802282DD16B
:102830003248006800F0CBFD41EC190B9FED360BE0
:1028400053EC102B00F0D6FD41EC180B00F092FD7C
:1028500033490860084600680A21B0FBF1F201FB29
:1028600012002C490C5C2E4800680A21B0FBF1F0E4
:1028700028490D5C8020009001900290034602469A
:10288000214603902846FEF74BFD30E01D480078B6
:1028900003282CD11948006800F099FD41EC190B70
:1028A0009FED1D0B53EC102B00F0A4FD41EC180B19
:1028B00000F060FD1B490860084600680A21B0FB73
:1028C000F1F201FB120013490C5C164800680A2162
:1028D000B0FBF1F00F490D5C802000900190029058
:1028E00003460246214603902846FEF719FD05B02F
:1028F000BDEC048B30BD000000C002406000002031
:1029000011000020FE000020B81E85EB51B8CE3F1C
:102910003C000020E4000020E17A14AE47E1E23FF1
:1029200040000020440000201FB52B4800680A2109
:10293000B0FBF1F029490860274800680A21B0FB84
:10294000F1F201FB12002649086040202549086089
:10295000254800680A21B0FBF1F0244908602248AC
:1029600000680A21B0FBF1F201FB12002049086067
:10297000402020490860204800680A21B0FBF1F09F
:102980001E4908601C4800680A21B0FBF1F201FBF7
:1029900012001B4908601B480968405C1949174A26
:1029A0001268895C134A1368164A114C2468125D38
:1029B000CDE90023CDE90210124A0C4C2468135DC6
:1029C000074C2468115D054C2468105D054A1268A7
:1029D000FEF7A6FC1FBD00003C0000208800002080
:1029E0008C00002090000020400000209400002077
:1029F000980000209C00002044000020A00000203F
:102A0000A4000020E40000200178442909D1417885
:102A1000412906D18178542903D10121894A1180A5
:102A20004CE00178542909D14178492906D18178AF
:102A30004D2903D10221834A11803FE001784229C8
:102A400009D14178502906D18178312903D1032158
:102A50007C4A118032E00178422909D1417850291D
:102A600006D18178322903D10421764A118025E0EC
:102A700001784F2909D14178462906D18178462924
:102A800003D105216F4A118018E00178532909D13B
:102A90004178542906D18178412903D10621694A18
:102AA00011800BE00178532908D14178452905D1DF
:102AB0008178542902D10721624A1180614909882D
:102AC000082971D2DFE801F0BA0432517190B0B434
:102AD000C17830394FF47A7211FB02F20179303942
:102AE00001EBC10303EB011102EB810241793039A3
:102AF00001EB810102EB4102817930391144524AE4
:102B00001160017A3039C279303A02EB820201EB6E
:102B100042014E4A1160817A3039427A303A02EBF2
:102B2000820201EB42014A4A116088E001793039A2
:102B3000C278303A02EB820201EB4201454A116051
:102B4000C17930398279303A02EB820201EB4201DD
:102B5000414A1160817A3039427A303A02EB82027E
:102B600001EB42013D4A116069E001793039C278D8
:102B7000303A02EB820201EB4201394A1160C1791D
:102B800030398279303A02EB820201EB4201354A58
:102B90001160817A3039427A303A02EB820201EBDD
:102BA0004201314A11604AE048E001793039C27887
:102BB000303A02EB820201EB42012C4A1160C179EA
:102BC00030398279303A02EB820201EB4201284A25
:102BD0001160817A3039427A303A02EB820201EB9D
:102BE0004201244A11602AE0C1783039224A11603A
:102BF00001793039214A116041793039204A116018
:102C0000817930391F4A1160C17930391E4A11600B
:102C100080211E4A1160417A30391D4A1160817A43
:102C200030391C4A11600AE001211B4A118006E07C
:102C300001211A4A11701A4A117000E000BF00BF4A
:102C400070470000D4000020300000203400002035
:102C5000380000203C0000204000002044000020FC
:102C6000480000204C0000205000002054000020AC
:102C7000580000205C000020A8000020AC000020CC
:102C8000B0000020B4000020B8000020BC000020EC
:102C9000C0000020C4000020D6000020FE0000205C
:102CA000FD00002070B500240121184800F08EF8C6
:102CB00005462946154800F083F81EE0134800F049
:102CC0002FF81349087008460178104800F034F8CE
:102CD0000F4800780F49104A127888540E4800783F
:102CE000401C0D4908700B48FFF78EFE084800781D
:102CF000522802D1002008490870044800F024F846
:102D00000028DBD101200549086070BD00C00040EB
:102D1000F50000203C010020F6000020E00000202B
:102D2000816911F0100FFBD100687047826912F0C1
:102D3000200FFBD101607047826912F0200F06BF9F
:102D400001600120002070478069012121EA1010F4
:102D50007047D0F818C01CF0080FFAD1D0F82CC07A
:102D60002CF0100CC0F82CC0D0F830C02CF0010CA6
:102D70002CF4407CC0F830C0D0F830C0B1EB021F5A
:102D800034BF4CF0200C2CF0200CC0F830C038BF01
:102D90005208C900B1FBF2F1491C49088A09426294
:102DA00001F03F018162C36200218161C16A41F08B
:102DB0001001C162016B40F201321143016370479F
:102DC00041647047826B114381637047002914BFCF
:102DD000006CC06B7047000010B5044604E014F8A6
:102DE000011B0348FFF7A2FF20780028F7D110BD90
:102DF00000C000401FB5FE4943F65050FFF76AF887
:102E0000FC490860084600684FF47A71B0FBF1F4A1
:102E10002046FFF70DFAFFF7FDF9FFF702FAFEF77C
:102E20006BF9FEF7BFF9FEF743FAFEF707FA5021F8
:102E3000F148FFF7C7FF1520FEF75AF80020FEF70C
:102E400091F800211520FEF79BF820210F20FEF7B6
:102E500097F8FEF745FEFEF77DF87DE2FEF7B2F843
:102E6000E648007808B9FFF799FAE5480078BF28E6
:102E70006DD1E448FDF738FE00212220FDF766FF02
:102E8000BF2864D10120E0490880E0480078FF288D
:102E900002D11420DE490860DE480078FF2802D104
:102EA0000A20DD49086050E0FFF778FA0022062189
:102EB0002220FDF791FFD9490870FF220121182037
:102EC000FDF78AFFD5490870D5480068D5490968DB
:102ED000884213D1D4480068D449096888420DD18A
:102EE000D3480068CA490968884207D1C7480078B2
:102EF000FF2803D10120CF49087027E0C8480068A7
:102F0000CD490968884213D1C7480068CB49096890
:102F100088420DD1C6480068BF490968884207D178
:102F2000BC480078FF2803D10120C54908700DE096
:102F300000212220FDF70AFFB1490870FF2803D0C5
:102F40000020B149088001E000BFADE700BFAB48F9
:102F50000078012845D1FFF725FC00212220FDF74C
:102F6000F5FEA7490870FD281BD10022062122206A
:102F7000FDF732FFA9490870A248FDF7B5FD002111
:102F80002220FDF7E3FE9E490870FD2809D1AD48D7
:102F90000078032190FBF1F201FB1200401CA949CB
:102FA000087000212220FDF7D1FE95490870FE2807
:102FB00016D1002206212220FDF70EFF9749087046
:102FC0009048FDF791FD00212220FDF7BFFE8C49BE
:102FD0000870FE2804D100208849087099490870BB
:102FE000BAE100212220FDF7B1FE8549087096481C
:102FF0000078012804D1002093490870FDF758FAA1
:103000007F480078EF2815D13220FDF76DFD0021B3
:103010002220FDF79BFEEF2801D1012000E00020D7
:103020007749087030B1012211468848FDF78BFEC0
:10303000FDF704FB86480078012819D10020844957
:10304000087084480088401C834990FBF1F201FB22
:103050001200804908806A480078FE2809D10A20B9
:10306000FDF742FD66480078FE28E6D1FDF7B6FC84
:1030700071E163480078FD2809D10A20FDF734FD8D
:103080005F480078FD28F3D1FFF74EFC63E15C4810
:103090000078FB286BD1FF2000900190029003463E
:1030A000024601460390FEF73BF96420FDF71CFD44
:1030B0000EE0FFF773F96648007848B1FF200090F2
:1030C000019002900346024601460390FEF728F95C
:1030D00000212220FDF73AFEFB2801D1012000E06B
:1030E0000020474908700028E3D148480078C043D1
:1030F0004649087008460078FF280AD145480078FC
:10310000FF2806D1FC2201211820FDF765FE434966
:1031100008703E480078FF280AD13E480078FF2812
:1031200006D0FE2201211820FDF756FE3B4908700B
:1031300036480078FF280AD036480078FF2806D1A4
:10314000FD2201211820FDF747FE344908702F4861
:103150000078FF288CD02F480078FF2888D0FF22E5
:1031600001211820FDF738FE2C490870F3E02448AF
:103170000078F72872D1FF2000900190029003465A
:10318000024601460390FEF7CBF86420FDF7ACFC45
:103190000EE0FFF703F92E48007848B1FF200090B9
:1031A000019002900346024601460390FEF7B8F8EC
:1031B00000212220FDF7CAFDF72801D1012000E0FF
:1031C00000200F4908700028E3D112480078C0435E
:1031D000104908700D480078FF2842D10846007851
:1031E000FF283ED1FC2201211820FDF7F5FD36E035
:1031F0000024F4001800002000C00040FD00002062
:10320000F700002080841E000601002064000020DA
:1032100050000020650000205C0000202C000020F1
:103220003C00002048000020400000204C0000200E
:1032300044000020660000205400002058000020B8
:1032400067000020FE000020120000200050024015
:1032500011000020F8000020A08601002FE03F4967
:1032600008703F480078FF280AD13E480078FF28C0
:1032700006D0FE2201211820FDF7AEFD3749087067
:1032800037480078FF280AD036480078FF2806D152
:10329000FD2201211820FDF79FFD304908703048BC
:1032A0000078FF2857D02F480078FF2853D0FF22FE
:1032B00001211820FDF790FD284908704BE02A48AD
:1032C0000078DF2809D13220FDF70EFC264800786F
:1032D000DF2840D1FEF7DAF93DE0234800787F2867
:1032E0002FD1FF2000900190029003460246014634
:1032F0000390FEF715F86420FDF7F6FB0EE0FFF7EC
:103300004DF81A48007848B1FF20009001900290D3
:103310000346024601460390FEF702F800212220F0
:10332000FDF714FD7F2801D1012000E000200E49A7
:1033300008700028E3D10E480078C0430C4908709B
:1033400009E0FF20009001900290034602460146EA
:103350000390FDF7E5FF00BF80E500002C00002092
:103360006400002065000020F7000020110000200C
:10337000DB0000204FEA1153A3F58063D3F11E0355
:10338000A8BFD3F1200C08DB4FF0004242EAC12273
:1033900052EA505232FA03F0704709420BD4102B14
:1033A000C4BF0020704703F5787CBCF1FF3F05D017
:1033B0004FF0FF3070474FF00000704770B500F0DD
:1033C000C3F800BF4992248000207047F0E7B0FAAC
:1033D00080F310FA03F10AD0C3F11D0303F58063F3
:1033E0004FEA41504FEA035202EBD12170474FF0B0
:1033F00000007047DFF848C170B51CEA111E1EBFFF
:103400001CEA13159EEA0C0F95EA0C0F00F06F8072
:1034100081EA030423EA4C134EEAD47E21EA4C11DC
:1034200041F4801143F48013AE44A1FB024CA0FB95
:103430000365AEF17F7E361955EB0C05A1FB034CFD
:103440004CF10003A0FB021C16EB0C06654153F186
:103450000003094218BF46F0010613F4007F0BD1A8
:103460004FEA03314FEA0530340341EA155140EA8F
:1034700016506FF003020AE04FEAC3214FEAC5205D
:10348000F40241EA555140EA56506FF0020202EB55
:103490002E4201EB025585EACE710AD05FEA440C58
:1034A00018BF24F0004450F1000041F1000120EA6F
:1034B000D47040F2FE7C624500D270BDA84214BFB9
:1034C0004FF080444FF04044002E08BF0024BEF16E
:1034D000806FA8BFA1F1C041BDE8704080F282803A
:1034E0004FF0000001F1C04101F0004170479EEA39
:1034F0000C0F0CEA131518BF95EA0C0F06D04FF00D
:10350000000081EA030E0EF0004170BD00F01CF8CF
:103510008900013E00F007B800F009B84FEA430CFB
:103520005FEA5C5C08D081EA030100F05BB84FEA17
:10353000410C5FEA5C5CF6D14FF000000149704736
:103540000000FF070000F87F0EF1020E2EF0030EC0
:103550005EF8046B364205D4012A43EB030515F5EA
:10356000001F12D8012841EB010C1CF5001F0CD8DC
:103570000ED14FEAD17C15F5001F0CEB4C0C0CF171
:10358000020C08BF4CEBD37C04E04FF0080C01E0C8
:103590004FEAD37C0CEB4C0526FA05F606F007063D
:1035A000B6F1040C06D20EEB860CBDE870404CF070
:1035B000010C6047DFE80CF0090B02024FF00041FC
:1035C0004FF00000A1F5002170BD194610460128FA
:1035D00051EB010418BFD4F5001484BF002001F0A2
:1035E000004170BD0808A0F500114FEA3101704795
:1035F0004FF04070E1EE100A7047000000400040BC
:103600001000000000800540100000000050004045
:103610001100000000900540110000000060004013
:103620001200000000A005401200000000700040E1
:103630001300000000B005401300000000400240ED
:103640001400000000C005401400000000500240BB
:103650002E00000000D005402E0000000060024057
:103660002F00000000E005402F0000000070024025
:103670003000000000F005403000000000D00340A2
:103680004600000000000640460000000010064012
:1036900047000000002006404800000000300640BF
:1036A0007F000000004006408000000000500640FF
:1036B00084000000006006408C00000000400040D4
:1036C0001000000000800540100000000050004085
:1036D0001100000000900540110000000060004053
:1036E0001200000000A00540120000000070004021
:1036F0001300000000B0054013000000004002402D
:103700001400000000C005401400000000500240FA
:103710002E00000000D005402E0000000060024096
:103720002F00000000E005402F0000000070024064
:103730003000000000F005403000000000D00340E1
:103740004300000000000640430000000010064057
:103750004400000000200640450000000030064004
:10376000580000000040064059000000005006408C
:103770005C0000000060064064000000007006402D
:103780006C000000008006406D00000000900640C4
:103790007F000000004000400080054000500040D5
:1037A000009005400060004000A00540007000400F
:1037B00000B005400040024000C0054000500240FB
:1037C00000D005400060024000E00540007002406B
:1037D00000F0054000D00340000006400010064005
:1037E0000010064000200640002006400030064041
:1037F00000300640004006400040064000500640B1
:103800000050064000600640006006400070064020
:103810000070064000800640008006400090064090
:1038200000900640000700000006000000050000B0
:10383000000400000003000000020000000100007E
:10384000000000000000000018ED00E01CED00E0AA
:1038500020ED00E000E400E004E400E008E400E023
:103860000CE400E010E400E014E400E018E400E000
:103870001CE400E020E400E024E400E028E400E0B0
:103880002CE400E030E400E034E400E038E400E060
:103890003CE400E040E400E044E400E048E400E010
:1038A0004CE400E050E400E054E400E058E400E0C0
:1038B0005CE400E060E400E064E400E068E400E070
:1038C0006CE400E070E400E074E400E078E400E020
:1038D0007CE400E080E400E084E400E088E400E0D0
:1038E00000E100E004E100E008E100E00CE100E0BC
:1038F00010E100E080E100E084E100E088E100E028
:103900008CE100E090E100E000E200E004E200E091
:1039100008E200E00CE200E010E200E080E200E0FB
:1039200084E200E088E200E08CE200E090E200E067
:1039300000688909001C4E0E40420F0000201C0048
:1039400080841E0000802500999E360000403800CB
:1039500000093D0000803E0000004B00404B4C0041
:1039600000204E00808D5B0000C05D000080700074
:1039700000127A0000007D0080969800001BB700BE
:103980000080BB00C0E8CE00647ADA000024F400B6
:103990000000FA0080A81201002D310100366E01EE
:1039A00040787D01400000000000000000010000A0
:1039B0003E0008000000000000010000A000000020
:1039C000020000000001000034540100000000006B
:1039D000000100002B700600000000000001000044
:1039E0002800000000000000000100002700010086
:1039F00000000000000100002000000000000000A6
:103A00000001000050000000020000000001000062
:103A10001AAC00000000000000010000179409002B
:103A200000000000000100001698050000000000E2
:103A30000001000014000000000000000001000070
:103A4000138008000000000000010000A00000003A
:103A5000080000000001000010000000000000004D
:103A6000000100002800000002000000000100002A
:103A700040000000040000000001000060000000A1
:103A800000000000000100005D000C0000000000CC
:103A900000010000500000000000000000010000D4
:103AA0004E000200000000000001000041AC0100D7
:103AB00000000000000100003C00000000000000C9
:103AC000000100003A800900000000000001000031
:103AD000300000000000000000010000280000008D
:103AE00000000000000100002700010000000000AD
:103AF000000100002360060000000000000100003B
:103B00002160080000000000000100001E0000000D
:103B100000000000000100001DC0040000000000C3
:103B20000001000050000000020000000001000041
:103B30001800000000000000000100001400000058
:103B40000000000000010000600000000400000010
:103B5000000100000024F40030003000005A62022E
:103B60009100910000879303D200D20000B4C404F6
:103B70001301130100E1F50554015401000E27075C
:103B800095019501A43B0000000000203C010000CD
:103B90003C020000CC3B00003C0100204C06000031
:103BA00098020000013023D107320502900802116B
:103BB0000182FF98123F065B4F666D7D077F6F772E
:0C3BC0007C585E79715C1C01391324F400
:0400000500000309EB
:00000001FF
